:020000040000FA
:06200000E3EF26F01200E0
:0A2006000200744E0000920000007A
:1020100018000000724E0000CE0000000200000018
:102020000001046B056B066B076B010E086F096BF3
:102030000C6B0D6B0E6B3F0E0F6F0A6B0B6B010E73
:10204000036FC00EB4EC15F02EEF10F000013E0E41
:10205000B4EF15F000013F0EB4EF15F058EC17F097
:1020600042E8026A080E025C21E2B80E021000018A
:10207000B4EC15F00001400EB4EC15F0000109516C
:1020800002E0FF0E01D0000E026F016A400E015CFB
:102090000BE20001006BF8EC1FF00001010E006F75
:1020A000F8EC1FF0012AF2D7022ADCD743E9E7CF88
:1020B000D9FF120058EC17F045E8010E026E080E29
:1020C000025C24E282EB03F0016A400E015C1CE238
:1020D0000001ABEC15F0C5EC16F0046E010E006FBC
:1020E000C5EC16F0056E0306ABEC15F004EB02F040
:1020F000F8EC1FF00001010E006F05EB02F0F8ECA8
:102100001FF0032A012AE1D7022AD9D7380E00018D
:10211000066F076B016A150E015C0DE2060E0102E7
:10212000F3280001046F056B200EE66E2BEC15F012
:1021300041E9012AF0D746E9E7CFD9FF1200C1EC07
:1021400015F082E9060E00010C03F328046F056BFD
:10215000800B01E00569080E0D03F3CF06F0076B55
:1021600006BF07690A0E005C17E10C6B0D2B070E0A
:10217000E76E0D1902E70D3502D00D51E75C04E260
:1021800099DF0001070E0D6F00EBAAF00001AB6BA9
:10219000AAAF27D0AB6925D000EBE6FF2BEC15F0FA
:1021A00041E900010C2B140EE76E0C1902E70C3507
:1021B00002D00C51E75C0FE20C6B0D2B070EE76EA3
:1021C0000D1902E70D3502D00D51E75C04E272DF14
:1021D0000001070E0D6F00EBAAF00001AB6BAABF68
:1021E000AB69AAC0F3FFABC0F4FF41E9E7CFD9FF69
:1021F0001200C1EC15F08AE965E8005001E015DA3B
:1022000003EBAAF004EBABF00001AC6BABBFAC6925
:10221000AA510E6EAB510F6EAC51106E77EC16F0EA
:1022200077EC16F06BEC19F0E552E550106EE550C6
:102230000F6EE7500E6E01EBAAF002EBABF000015F
:10224000AC6BABBFAC69AA51116EAB51126EAC5105
:10225000136E7EEC16F07EEC16F06BEC19F0E55286
:10226000E550136EE550126EE750116E0A6A0B6A64
:1022700081EB0CF082EB0DF00CEBB3F00DEBB4F056
:102280000001B56BB4BFB569EAEC16F077EC16F057
:102290004BEC16F0110F26EC16F00EEBB9F00FEB2D
:1022A000BAF010EBBBF0B6EC16F007E00001D890E6
:1022B000B833B733B633E806FAE10001AD51B625BD
:1022C000AA6FAE51B721AB6FAF51B821CAEC16F06F
:1022D00091EB23F092EB24F093EB25F0D950230FF0
:1022E00085EC16F0A3EB1DF0A4EB1EF0A5EB1FF0A0
:1022F000D9501D0F85EC16F08EEB26F08FEB27F0F2
:1023000090EB28F0D950260F8DEC16F0A6EB20F0BC
:10231000A7EB21F0A8EB22F0D950200F8DEC16F09E
:10232000176A186A196A0CEBADF00DEBAEF0AF6BE3
:10233000AEBFAF69F1EC16F026EBE6FF27EBE6FF48
:1023400028EBE6FF3FEC16F01A6EAB511B6EAC515A
:102350001C6EA0EB29F0A1EB2AF0A2EB2BF0D950D8
:10236000290F95EC16F09DEB2CF09EEB2DF09FEBDA
:102370002EF0D9502C0F9DEC16F019341C50191862
:1023800002E6F8EC16F035E3005001E1C1DB16344B
:1023900009E33AEC17F01D50EE261E50EE221F50B6
:1023A000EE221FD03AEC17F01A50EE5E1B50EE5A98
:1023B0001C50EE5AE2DB2C50EE262D50EE222E5011
:1023C000EE22D9501A0F4CEC17F02650EE5E275033
:1023D000EE5A2850EE5A005001E0A7DB0C06000E22
:1023E0000D5AD950170F95EC16F00A2A000E0B2241
:1023F000C4D783EB0AF084EB0BF00C6A0D6A0AEB8E
:10240000B3F00BEBB4F00001B56BB4BFB569EAEC07
:1024100016F07EEC16F04BEC16F00E0F26EC16F0D4
:1024200011EBB9F012EBBAF013EBBBF0B6EC16F00F
:1024300007E00001D890B833B733B633E806FAE1C5
:102440000001B651AD5DAA6FB751AE59AB6FB8512F
:10245000AF59CAEC16F00AEBADF00BEBAEF0AF6B78
:10246000AEBFAF69F1EC16F023EBE6FF24EBE6FF1D
:1024700025EBE6FF3FEC16F0176EAB51186EAC5132
:10248000196E1A6A1B6A1C6A19341C50191802E664
:10249000F8EC16F034E2005002E13ADB01D045DB03
:1024A000163409E343EC17F02050EE262150EE22BB
:1024B0002250EE221CD043EC17F01750EE5E18505D
:1024C000EE5A1950EE5A59DB2950EE262A50EE22C8
:1024D0002B50EE22D950170F4CEC17F02350EE5E24
:1024E0002450EE5A2550EE5A0A06000E0B5AD950C7
:1024F0001A0F9DEC16F00C2A000E0D22C5D70050C5
:1025000001E0B3D866E9E7CFD9FF120058EC17F025
:1025100041E8000104517F08000E05552CE30651E7
:102520003F08000E075527E3006B04513F0802E205
:10253000010E006FBFEC16F0B8095BEC17F0400E0F
:102540000001A5EC16F004E0FDDAFFEC16F009D06E
:10255000085104E0F7DAF550011303D0F3DAF51C63
:10256000011700010151016E400E55EC17F001EB0F
:1025700002F0F8EC1FF00DEF17F00001073501E352
:102580001200073506E206513F08000E075501E22A
:1025900012000651E76E0E1902E70E3502D00E51F9
:1025A000E75C02E206C00EF00651E76E0F1902E783
:1025B000E73402D0E7500F5D02E206C00FF00535A8
:1025C00002E3046B056B053508E204518008000E38
:1025D000055503E2800E046F056B0651BDDB22DB5F
:1025E000EF50FF0808E11EDB04C0EFFF1BDBEE52DB
:1025F00004C0EFFF120016DBEECFAAF00451000179
:10260000D880AA5503E20EDB04C0EFFF0BDBEECF50
:10261000AAF0EFCFABF0000104510001AB5D04E282
:1026200001DBEE5204C0EFFF120058EC17F041E856
:1026300000010E51016E01340F51011802E60150E4
:102640000F5D0FE301EBE9FFEA6AE9BEEA68D890A3
:10265000E936EA36120EE926000EEA22EF68012A70
:10266000EAD7400E0E6F0F69D8D358EC17F043E845
:1026700000010E51026E000102500F5D36E3025060
:102680006BDB0250066F076B7ADB036EDADBCADAAC
:10269000EF50016EC7DAEE52EF50015C24E20150B8
:1026A0000001046F056B006B04513F0802E2010E4C
:1026B000006F400E4ADB03E045DAA1DB09D0095187
:1026C00004E040DAF550011303D03CDAF51C0117A1
:1026D00000010151036E400EE8DB03EB02F0F8EC61
:1026E0001FF0012AD7D7022AC6D744E9E7CFD9FF7E
:1026F000120047DA85E94CE8B5DAEECF04F0EDCF09
:1027000005F0EE50055EED5047DAEECF06F0EDCF66
:1027100007F0EE50075EED50085A063402E342DB44
:1027200003D0010E0D6E0E6A083402E343DB03D0C2
:10273000010E0F6E106A06340850061804E60550A4
:10274000075C065008581BE23DDAB0DA31E0DEDE05
:10275000083405E3095007260A5008220AD00DDF85
:102760000B5007260C50082200010F50062710506E
:10277000072300010D5004270E500523E6D735DA54
:10278000A0DA16E0C3DE00010F5006271050072321
:10279000063405E3095005260A500622F1D70B50EE
:1027A00005260C5006220D5004270E500523E8D7AD
:1027B0004DE9E7CFD9FF1200E4D985E950E852DAB4
:1027C000EE50116EED50126E1150055E1250E4D9AC
:1027D000EE50136EED50146E1350075E1450085AED
:1027E000063402E3DFDA03D0010E0D6E0E6A083400
:1027F00002E3E0DA03D0010E0F6E106A06340850CF
:10280000061804E60550075C0650085819E2DAD9A4
:10281000FFD94CDA2DE0083405E3095007260A50A9
:10282000082209D0F5D90B5007260C5008220F506A
:102830001326105014220D5011260E501222E9D7E3
:10284000D4D93FDA15E0E4D90F50132610501422E2
:10285000063405E3095005260A500622F2D70B502C
:1028600005260C5006220D5011260E501222E9D7D3
:1028700051E9E7CFD9FF120084D985E941E800503A
:1028800001E0D3DE0106056A0150055C09E2005053
:1028900003E0CDD991DF02D0CAD92BDFB7DAF4D764
:1028A000005001E0E2DEB9D26CD985E949E8005078
:1028B00001E0BBDE0106056A0150055C2BE202EB7C
:1028C000F6FF03EBF7FF0900F550066E0900F5501F
:1028D000076E0900F550086E0800F550096E040EE9
:1028E0000224F66E000E0320F76E0900F5500A6E02
:1028F0000900F5500B6E0900F5500C6E0800F550FC
:102900000D6E005003E0E8D957DF02D0E5D9F1DEC3
:102910007DDAD2D7005001E0A8DE4AE9E7CFD9FF3F
:1029200012002FD984E94CE8000103510F6E800E8C
:102930000F140A6E0F9E7F0E0415096E20DA076EC3
:102940000728086E070E071608160D680E6A06158A
:1029500003D0D8900D360E36E804FBE70D1E0E1E90
:10296000066A0050065C73E2099E0001006B0934A0
:1029700005E209503F0802E2010E006FB80E071091
:1029800005D903DA046EB80E081000D9FED9056E19
:102990000A5006E001EBE9FF02EBEAFFEF5006D038
:1029A00001EBF6FF02EBF7FF0800F5500B6E0C6A27
:1029B000070E061503D0D8900B360C36E804FBE75B
:1029C0000F50200A2AE0300A21E0180A1AE00C0A07
:1029D00013E0060A07E0030A24E10D5004160E5026
:1029E00005160AD00D5004160E5005160D500B1288
:1029F0000E500C120B1E0C1E0B5004120C50051224
:102A000010D00D500B120E500C1202D00B1E0C1ECB
:102A10000B5004160C50051604D00B50041A0C5021
:102A2000051AB80E07100001B1D804EB02F0F8EC5B
:102A30001FF0B80E08100001A9D805EB02F0F8EC61
:102A40001FF0062A092A012A000E02228AD74DE920
:102A5000E7CFD9FF120095D882E946E80050026E10
:102A6000036AE8BE036800010351046E039F200E51
:102A7000025E000E035A03340FE2610ED89003BECB
:102A800003D0025C000E035807E2050EE66E02EB6F
:102A9000AAF003EBABF023D0056A066A076A160EAC
:102AA000F36EF46AF350075C000EF4540FE2075023
:102AB00089D9005C08E1072885D9056E066AE8AE69
:102AC00005D0066803D0020E0726E9D70550061088
:102AD00019E0050EE66E05EBAAF006EBABF000017F
:102AE000AB03F3CFABF0AA03F3CFAAF0F450AB27BC
:102AF0002A0EAA27470EAB23AAC0E6FFABC0E6FF0B
:102B000010DF43E904EB03F047E9E7CFD9FF1200F8
:102B100088D9A2D9FBDC8DD9A6D9F8DC82D9A3D972
:102B2000F5DC87D999D986EF12F07BD995D925DDC7
:102B300080D999D922DD75D996D91FDD7AD98CD95A
:102B4000BDEF12F0070E0615F76A220FF66E470E5C
:102B5000F7220800120075D90001006BA1D9010EFF
:102B6000006F9ED9006B1200026F006B07EC20F023
:102B70000001010E006F07EF20F0D950140F4CEF49
:102B800017F0D9CFE6FFE1CFD9FF120094D9400E5C
:102B9000091000015BEF17F0065A00EBE9FF01EBAB
:102BA000EAFF020EE926000EEA22EE50076EED5013
:102BB000086E02EBE9FF03EBEAFF020EE926000EC6
:102BC000EA221200075007260850082287EB09F076
:102BD00088EB0AF00550075E0650085A0550075C5E
:102BE0000B6E065008580C6E120005500526065054
:102BF000062285EB09F086EB0AF00750055E0850C7
:102C0000065A0750055C0B6E085006580C6E1200F1
:102C100011EB04F012EB05F013EB06F014EB07F0E8
:102C2000BDEF12F010C0E9FF11C0EAFF1200040E60
:102C300000010224AA6F000E0320AB6FAAC0E6FFBA
:102C4000E66E02EBE6FF03EBE6FF120025D900017A
:102C5000B051EE5CAD6FB151EE58AE6FB251EE585F
:102C6000AF6F120000EBE9FF01EBEAFFEE50056EDB
:102C7000ED50066E02EBE9FF03EBEAFF12006BEC8E
:102C800019F0E552E5CFACF0E5CFABF0E7CFAAF015
:102C90000001AA5112006BEC19F0E552E5CFB2F039
:102CA000E5CFB1F0E7CFB0F0D950120005EBAAF0B4
:102CB00006EBABF00506000E065A0001AA51AB1157
:102CC000120007EBAAF008EBABF00706000E085A5B
:102CD0000001AA51AB111200D9500A0FE66EDACFEB
:102CE000E6FFD950060FE66EDACFE6FF12000EEBD4
:102CF000E6FF0FEBE6FF10EBE6FF120011EBE6FF3D
:102D000012EBE6FF13EBE6FF1200C6D81150EE26D9
:102D10001250EE221350EE221200BED80E50EE26B4
:102D20000F50EE221050EE221200B6D82350EE269D
:102D30002450EE222550EE221200AED82650EE2668
:102D40002750EE222850EE221200AFD8E0EC1FF000
:102D500000010A510B111200020DF3CF10F0F4CF55
:102D600011F0120E1027000E11231200020E1F0B7D
:102D7000B9C0B6F0BAC0B7F0BBC0B8F01200065187
:102D8000E840E840E8401F0B1200E0EC1FF00001B3
:102D900001511200AC6FAA51146EAB51156EAC51BB
:102DA000166E1200051E061E052A000E06220D686C
:102DB0000E681200071E081E072A000E08220F6860
:102DC00010681200F76A460FF66E490EF7220800E7
:102DD000F5501200B3C0E6FFB4C0E6FFB5C0E6FF91
:102DE0001200ADC0E6FFAEC0E6FFAFC0E6FF1200C6
:102DF00017501A5C18501B5819501C581200F5CF68
:102E000002F00BC0FAFF0A511400120044E9040E4C
:102E10000226000E0322052A120042E9E7CFD9FF5D
:102E20001200000107500A24046F08500B20056FA0
:102E3000120000010A50075C046F0B500858056F20
:102E40001200006BB80E031036D80001010E006F9F
:102E5000B80E03105BEF17F005500C24066F0650F8
:102E60000D20076F12000C50055C066F0D500658C0
:102E7000076F120082DE1750EE261850EE2219500E
:102E8000EE22BDEF15F079DE1A50EE261B50EE2231
:102E90001C50EE22BDEF15F0E96EDACFEAFF12000A
:102EA000400E011008D80001120004115BEF17F06A
:0C2EB00068DE81E91200026F07EF20F0DD
:042EBC00D89801D0D1
:102EC000D88850E8D9CFE6FFDACFE6FFE1CFD9FFC7
:102ED000E2CFDAFF94E9089E07E701AE05D0006C67
:102EE000011EE86A0122088E81EB0CF080EB0BF0EA
:102EF0000A6A096A8E0E0D6E0E6A7FEF17F00C508B
:102F00000B100A10091055E00EBE4DD00CBE0CD0AF
:102F10000D500E1048E0D89009360A360B360C36A4
:102F20000D06D8A00E06F2D70E5031E10D282FE085
:102F300009AE11D07F0E091402E10AA00CD00A2AB2
:102F4000E86A0B220C2207E3D8800C320B320A32DB
:102F50000D2A0D281CE00D5026E08AEB00F08BEBCB
:102F600001F00C34026E0D30036E0232039E08BE77
:102F7000038EE552E5CFDAFFE7CFD9FF4EE9120025
:102F80007F0E036EFF0E026E016E006EF2D77F0E93
:102F900008BEFF0E036E02D07F0E036E800E026E1F
:102FA000016A006AE6D708AE04D0800E036E026A9A
:102FB000F7D7036A026AF4D745E8D9CFE6FFDACF3C
:102FC000E6FFE1CFD9FFE2CFDAFF8BE9086A37EC01
:102FD00018F008B6F0EF17F008AA0ED008BC05D01C
:102FE0007F0E016EFF0E006E23D0800E016E006A10
:102FF0001FD0016A006A1CD008B8FBD78F0E03608F
:10300000EDD77E0E0364F5D78E0E035C05E0D890F5
:1030100002320132032AF8D708AC06D0016C021E36
:10302000E86A022202AEE5D781EB00F082EB01F004
:10303000E552E5CFDAFFE7CFD9FF47E912000636C0
:10304000073602E30884087E06E10880076A066AFC
:10305000056A046A1200072803E0D88006321200CD
:10306000D890063202E10882120008861200023669
:10307000033602E3088C087E06E10888036A026AC8
:10308000016A006A1200032803E0D88002321200AD
:10309000D8900232EAE1088A120043E8D9CFE6FF6D
:1030A000DACFE6FFE1CFD9FFE2CFDAFF89E9066A9E
:1030B0001200F3DF068001D0F0DF01AE66EF18F0FA
:1030C000006C011EE86A012206B0067E03AE6EEFB8
:1030D00018F0026C031EE86A0322067EF8EC1AF070
:1030E00003BE90EF18F006AE08D0026C031EE86A2B
:1030F0000322046C051EE86A052206B006D084EBA4
:1031000000F085EB01F006A004D082EB00F083EB29
:1031100001F0E552E5CFDAFFE7CFD9FF45E9000C32
:1031200006BE75EF18F0E9DFFF0C4AE8D9CFE6FFDD
:10313000DACFE6FFE1CFD9FFE2CFDAFF94E9086A00
:103140001FEC18F037EC18F008B6C0EF17F008A223
:1031500005D008BAC0EF17F0C7EF17F008BAD3EFE1
:1031600017F008A005D008B8C0EF17F0D3EF17F09C
:1031700008B8C7EF17F00E6A7F0E07240D6EE86AD5
:103180000E2203500D5EE86A0E5A1A0E0F6E076A81
:10319000096A0A6A0B6A0C6A0050045E0150055AFB
:1031A0000250065A000E075A09E700500426015043
:1031B000052202500622000E072201D0098AD8906B
:1031C0000436053606360736D89009360A360B36E9
:1031D0000C360F2EE1D7065005100410D8A4098A2A
:1031E0007FEF17F0FBEC18F0E8B6000CE8B0000C2D
:1031F000E8B4000C010C47E8D9CFE6FFDACFE6FFD0
:10320000E1CFD9FFE2CFDAFF91E9086A1FEC18F0AD
:1032100037EC18F008B64ED008AE08D008A004D09D
:1032200008A802D0088046D0089044D00350075C1C
:103230000BE10250065C08E10150055C05E100501D
:10324000045C02E1088036D0D8A002D0088E10D0ED
:1032500007500318071A031A06500218061A021A12
:1032600005500118051A011A04500018041A001A12
:103270000350075C10E0FF0F09E0089008B403D08A
:1032800008AE088417D008AE089414D0032AD8904A
:103290000232013200320050045E0150055A0250E1
:1032A000065A06BEEAD7D890043605360636072EEB
:1032B000F8D7C8D70850E552E5CFDAFFE7CFD9FFF6
:1032C0004FE91200FBEC18F0E8B6000CE8B0000C77
:1032D000E8A4000C010C46E8D9CFE6FFDACFE6FF00
:1032E000E1CFD9FFE2CFDAFF8EE980EB06F081EB88
:1032F00007F082EB08F085EB0BF084EB0AF083EB30
:1033000009F003500602F450016EF350006E0450B1
:103310000702F450036EF350026E04500602F3509D
:103320000126F4500222E86A032209500702F350F2
:103330000126F4500222E86A032205500602F350E7
:103340000226F450032205500702046AE86A0422A8
:10335000F3500326F450042209500802F3500226C9
:10336000F4500322056AE86A042205220A50080282
:10337000F3500326F4500422E86A05220B50080299
:10338000F3500426F4500522E552E5CFDAFFE7CFEB
:10339000D9FF49E9000C4AE8D9CFE6FFDACFE6FFCA
:1033A000E1CFD9FFE2CFDAFF94E9086A1FEC18F009
:1033B00037EC18F008B6C0EF17F008A205D008B82F
:1033C000C0EF17F0C7EF17F008AA05D008B0C0EF9C
:1033D00017F0C7EF17F008B002D008A802D0D3EF5B
:1033E00017F00E6A035007240D6EE86A0E227E0E57
:1033F0000D5EE86A0E5A096A0A6A0B6A0C6A025084
:103400000602F4500C6EF3500B6E01500602F3509E
:103410000A26F4500B22000E0C2202500502F35033
:103420000A26F4500B22000E0C2200500602F35024
:103430000926F4500A22000E0B220C22015005022C
:10344000F3500926F4500A22000E0B220C220250DF
:103450000402F3500926F4500A22000E0B220C221B
:1034600000500502F4500926000E0A220B220C22FD
:1034700001500402F4500926000E0A220B220C22ED
:103480007FEF17F0D88801D0D8984AE8D9CFE6FF67
:10349000DACFE6FFE1CFD9FFE2CFDAFF94E9D8B87F
:1034A000037E086A1FEC18F037EC18F008B6C0EF7E
:1034B00017F008A20AD008AA03D008BEC0EF17F080
:1034C00008A4CCEF17F0C9EF17F008AA05D008AC94
:1034D000CCEF17F0C9EF17F008A00AD008A808D061
:1034E00008BE04D008A402D0D5EF17F0D9EF17F02A
:1034F000096A0E6A0350075C106E10E384EB0AF051
:1035000085EB0BF086EB0CF087EB0FF080EB04F013
:1035100081EB05F082EB06F0083A09D080EB0AF067
:1035200081EB0BF082EB0CF083EB0FF0106C089E3C
:1035300008BC088E8FEB0DF008B0ABEF17F01A0E39
:103540001060ABEF17F00D6A076A08A408D0046C8E
:10355000051E061E071EE86A05220622072208AC81
:1035600008D00A6C0B1E0C1E0D1EE86A0B220C22E2
:103570000D22116A105207E0073406320532043278
:103580001132102EF9D704500A2605500B2206508E
:103590000C2207500D2291EB09F0089E0DAE0BD0C6
:1035A000096C0A1E0B1E0C1E0D1EE86A0A220B2255
:1035B0000C220D22088E0DA006D0D8800C320B32C2
:1035C0000A3209320F2A8FEB0DF07FEF17F043E834
:1035D000D9CFE6FFDACFE6FFE1CFD9FFE2CFDAFFBE
:1035E00089E9066A1200F3DF068003D0F0DF01D01C
:1035F0000682056A046A100EE76ED890023603361A
:10360000043605360050045C0150055805E30050AF
:10361000045E0150055A022AE72EF0D706B21200C6
:1036200006B006D084EB00F085EB01F006A004D0D4
:1036300082EB00F083EB01F0E552E5CFDAFFE7CF54
:10364000D9FF45E9120045E8D9CFE6FFDACFE6FF1A
:10365000E1CFD9FFE2CFDAFF8FE90C6A1200F3DF86
:103660000C8003D0F0DF01D00C820B6A0A6A096A71
:10367000086A200EE76ED8900436053606360736FF
:10368000083609360A360B360050085C01500958D6
:1036900002500A5803500B5809E30050085E0150CD
:1036A000095A02500A5A03500B5A042AE72EE4D74B
:1036B0000CB212000CB00AD088EB00F089EB01F0DC
:1036C0008AEB02F08BEB03F00CA008D084EB00F047
:1036D00085EB01F086EB02F087EB03F0E552E5CFD6
:1036E000DAFFE7CFD9FF49E9120044E8D9CFE6FF76
:1036F000DACFE6FFE1CFD9FFE2CFDAFF8EE980EB48
:1037000008F081EB09F082EB0AF083EB0BF0045038
:103710000802F350006EF450016E04500902F35099
:103720000126000EF420026E04500A02F350022615
:10373000000EF420036E04500B02F35003260550D4
:103740000802F3500126F4500222000E0322055015
:103750000902F3500226F450032205500A02F350E6
:10376000032606500802F3500226F45003220650A6
:103770000902F350032607500802F3500326E552CE
:0C378000E5CFDAFFE7CFD9FF48E9000CE5
:04378C0090DB86E95F
:103790000150010600090CE002EBE6FF03EBE6FF37
:1037A00000EBE6FF69DBF4E1AB1DF2E1010E01D0B5
:1037B000000E41E9E5CFDAFFE7CFD9FF120077DB52
:1037C00089E97BE80A6A0B6A02EBF6FF03EBF7FF75
:1037D00004EBF8FF0800F550096E095001E12DD304
:1037E000250E095C01E01BD30C6A0D6A0E6A0F6A94
:1037F000106A2DDB2D0E095C0CE02B0E095C09E034
:10380000200E095C06E0230E095C03E0300E095C23
:1038100015E10950300A10E0130A0CE0030A08E031
:103820000B0A04E0060AE5E10C80E3D70C82E1D73D
:103830000C84DFD70C86DDD70C88DBD72A0E095C19
:1038400013E1A5DB0DE30C801CEBAAF01DEBABF044
:103850000001AA6DAB1F000EAB23AA510D6E02D062
:103860009CEB0DF0F4DA07D0126A3FDB02E06BDB71
:10387000FCD792EB0DF00CB00C982E0E095C15E104
:10388000E6DA2A0E095C08E182DB04E29CEB0EF02A
:10389000010E0F6EDCDA09D0126A27DB02E053DB7F
:1038A000FCD792EB0EF0010E0F6E680E095C07E17B
:1038B000CEDA680E095C1DE1030E106E19D0740E8D
:1038C000095C16E07A0E095C13E0480E095C06E01C
:1038D000540E095C03E05A0E095C02E1020E07D0A7
:1038E0006C0E095C03E06A0E095C03E1010E106EC8
:1038F000AEDA09506E0A01E16ED21E0A01E128D14A
:10390000200A01E125D13F0A01E1FDD01A0A01E1B7
:10391000FAD00D0A01E1F7D0200A01E1F4D03A0A09
:1039200001E1F1D0200A01E1EED0260A01E1EAD05E
:103930000D0A01E1E7D01A0A01E19ED0200A3BE01E
:10394000300A1AE0460A0EE0250A01E072D2D95088
:10395000020FE96E000EDA20EA6E010EEE5E000E36
:10396000EE5AEE5A0FDB250EE66E86DA03E1AB1D4A
:1039700001E159D20A2A5BD2116A0D50010803E213
:103980000D04116EF5DA115007E0010E0C1404E17C
:103990006DDA01E048D2116AD3DAEF50096ECBDA62
:1039A00003E1AB1D01E13FD20A2A000E0B225EDAD1
:1039B00001E13FD238D2020E105C08E1030E4EDA6C
:1039C000EE50176EEE50186EEF5007D0E7DAAC6B82
:1039D000AA51176EAB51186EAC51196E17EBE6FF7A
:1039E00018EBE6FF19EBE6FF59EC26F043E9CAC0F5
:1039F000AAF0CBC0ABF0CCC0ACF00001AA511C6E59
:103A0000AB511D6E0F5006E01C500E5C03E20E50D1
:103A10001C6E1D6A1C500D5C02E29CEB0DF050DA2E
:103A200005E00D500E5C02E28EEB0DF00CB004D000
:103A30001DDA01E0F8D1116A126A17EBF6FF18EBF4
:103A4000F7FF19EBF8FF0800F550096E095010E078
:103A50000D50125C0DE26FDA03E1AB1D01E1E3D121
:103A60000A2A000E0B22122AD950170F55DAEBD76B
:103A7000FDD901E1DED1D7D163DAEE501A6EED50F7
:103A80001B6E1AEBE6FF1BEBE6FF4BEC26F042E960
:103A9000F3501C6EF4501D6E0F5006E01C500E5C6F
:103AA00003E20E501C6E1D6A1C500D5C02E29CEB82
:103AB0000DF006DA05E00D500E5C02E28EEB0DF023
:103AC0000CB004D0D3D901E0AED1116A126A1AEB5E
:103AD000E9FF1BEBEAFFEF50096E09500FE00D50B4
:103AE000125C0CE228DA03E1AB1D01E19CD10A2A49
:103AF000000E0B22122A1A2A1B22E9D7B7D901E19C
:103B000098D191D10C8E10040AE1040EA7D9EE5081
:103B1000136EEE50146EEE50156EEF5032D0030E51
:103B2000105C16E10CAE0CD00BDAEFCFAAF000015E
:103B3000AB6BAC6BAD6BAAAF23D0AB69AC691FD0DC
:103B4000FFD9EFCFAAF00001AA51136E146A20D05A
:103B5000020E105C0CE10CAE06D0030E7FD9B6D974
:103B6000ACAF0ED00CD0030E79D9B0D909D00CAEC1
:103B70000AD014DAAC6BAD6BABAF02D0AC69AD69F7
:103B8000BCD9166E07D00ADAAA51136EAB51146E67
:103B9000156A166A0F5002E1010E0E6E1E6A1F6A48
:103BA000D950400FE66E000EDA20E66EE552E55081
:103BB000436EE750426E416A116A0A0E106E095058
:103BC000780A12E0200A10E0280A0CE0200A0AE035
:103BD0003F0A06E00D0A02E0200A08E1020E05D0C5
:103BE000080E03D0080E0926100E106E0CBE02D06F
:103BF0000C920C94800E0C1417E0163415E3E66852
:103C0000E668E668E66842D975EC1BF0E552E5CF58
:103C1000ADF0E5CFACF0E5CFABF0E7CFAAF0000117
:103C20006CD9166E2D0E07D00CA202D02B0E03D02D
:103C30000CA404D0200E206E1E2A01D0206A0E5043
:103C400005E1135014101510161061E000015E0E0E
:103C5000AA6F4E0EAB6F000EAC6F83D932EC1BF027
:103C6000E552E5CFB0F0E5CFAFF0E5CFAEF0E7CF6E
:103C7000ADF00001AA51AD25F36EAB51AE21F46E4B
:103C8000AC51AF21F86EF4CFF7FFF3CFF6FF080089
:103C9000F550126E580E095C05E1610E125C02E3EC
:103CA000200E125E5ED92FEC1BF0E552E550166E29
:103CB000E550156EE550146EE750136E42EBE9FFC8
:103CC00043EBEAFF4206000E435A12EBEFFF1E2AB7
:103CD0001350141015101610B9E10CA619D06F0E60
:103CE000095C06E10E501E5C13E31E280E6E10D018
:103CF000780E095C09E0580E095C06E0620E095C6A
:103D000003E0420E095C04E1020E1F6E01D01E6A40
:103D1000100E0C1407E00D500E5C04E20F5002E18F
:103D20008DEB0EF00E501E5C03E21E500E5E01D0B5
:103D30000E6A0E501E241F24D8800D5407E20E5028
:103D40000D5CD8801E54D8801F54116E010E0C14C7
:103D500006E1115004E08AD866E10AD9116A2050C0
:103D600007E010D920EBE6FF87D802E1AB1D5BE04E
:103D70001F500BE007D9300EE66E7ED802E1AB1D76
:103D800052E0D9D802E1AB1D4EE00E501F5C02E2BA
:103D90001F500E5E300EE66E0EEBE6FFDCD843E100
:103DA000422A000E432242EBE9FF43EBEAFFEF50C9
:103DB000126E125008E0E6D812EBE6FF5DD8F0E193
:103DC000AB1DEEE130D052D82EE10E501E2411244E
:103DD0001F240A262CD01050030A1CE0010A14E00C
:103DE000030A07E0ADD8C9D80AEBEEFF0BEBEDFFF5
:103DF00020D08BD8AD6BABAF02D0AC69AD69A0D889
:103E00004ED8ADC0EEFF15D080D8ABBFAC6998D806
:103E100046D80FD095D8B1D80AEBEFFF0AD08BD88F
:103E200005E1AB1D03E1F368F4680BD00A2A000E2C
:103E30000B22D950020F70D8CDD40AEBF3FF0BEB55
:103E4000F4FF7CE9E5CFDAFFE7CFD9FF1200D950C4
:103E5000020F62D80800F550096E1200005E000ED5
:103E6000015A00EBE9FF01EBEAFF1200200EE66EBB
:103E700011EBE6FFABEF1FF07EEC26F043E9F3CF4A
:103E8000AAF0F4CFABF00001F31C120013EBE6FF35
:103E900014EBE6FF15EBE6FF16EBE6FF12006DD81C
:103EA000AAC0EEFFABC0EEFFACC0EEFF1200D9CF50
:103EB000E6FFDACFE6FFE1CFD9FFE2CFDAFF12006B
:103EC0001C500D5C116E54D80F501200EECFAAF0AA
:103ED000EECFABF0EFCFACF00001AD6B1200EECF48
:103EE000AAF0EFCFABF0000112000950E66EE66ACF
:103EF000FFEC26F042E9F3501200AA51136EAB51C9
:103F0000146EAC51156EAD5112000AEBAAF00BEB1A
:103F1000ABF00001AC6B1200E96E000EDA20EA6E25
:103F2000EF2AEECFF6FF000EEF22EECFF7FFEF22E3
:103F3000EECFF8FF120026D809EBE6FF3CEF1FF0AA
:103F4000020E2EEF1FF00A0E1202F3500924D00FBA
:103F5000126E27EF1FF016D8C6EC1BF044E90009DB
:103F6000120010EBE6FFE66AE66AE66A46EF1FF02B
:103F700011500A26000E0B221200EE50EFCFEAFF7E
:103F8000E96E120005EBE6FF06EBE6FF1200D8DF54
:103F9000EE501C6EED501D6E1D341200D1DF6FEF20
:023FA0001FF010
:0E3FA200D9CFE6FFE1CFD9FF82E900EBE6FFC1
:103FB0009FEC10F041E900D041E9E7CFD9FF1200B2
:103FC00035D8000101BFFCD78188818A8186000035
:103FD00081962CD8000101BFFCD78188818A818617
:103FE0000000000083CF01F08196818E818C120049
:103FF0001DD8000101BFFCD702C083FF956A8198DC
:10400000818A818600008196818E818C12000ED873
:10401000000101BFFCD702C083FF956A8198819A95
:10402000818600008196818E818C12009568000146
:10403000005102E0819E01D0819C8188819A818615
:104040000000000083CF01F081961200C2800001C1
:10405000800EAA6F010EAB6FE66EE66AE66A020E8C
:10406000E66EABC0FAFFAA51140044E9C282000117
:10407000800EAA6F010EAB6FE66EE66AE66A020E6C
:10408000E66EABC0FAFFAA51140044E9C3CFE6FFC5
:10409000C4CFE6FF5EEC17F0E552E5CFA1F0E5CF27
:1040A000A0F0E5CF9FF0E7CF9EF0C3CFE6FFC4CFEF
:1040B000E6FF5EEC17F0910EE66EED0EE66EFC0E7E
:1040C000E66E380EE66ECBEC19F0E552E5CF9DF0CA
:1040D000E5CF9CF0E5CF9BF0E7CF9AF0760EE66E49
:1040E0006E0EE66E420EE66E440EE66E0A0EE66E4A
:1040F000D70EE66E230EE66E3D0EE66E92C0E6FF2C
:1041000093C0E6FF94C0E6FF95C0E6FF96C0E6FFC9
:1041100097C0E6FF98C0E6FF99C0E6FF9AC0E6FFA9
:104120009BC0E6FF9CC0E6FF9DC0E6FF42EC1AF094
:1041300095EC18F042EC1AF0CBEC19F0E552E5CF13
:10414000A5F0E5CFA4F0E5CFA3F0E7CFA2F00E0EE7
:10415000E66E050EE66EF00EE66E400EE66EA2C04E
:10416000E6FFA3C0E6FFA4C0E6FFA5C0E6FFCBECD8
:1041700019F0E552E5CFA9F0E5CFA8F0E5CFA7F01B
:10418000E7CFA6F0C290C2921200D9CFE6FFE1CFEE
:10419000D9FF81E956E83E0E016E026A036A046A9D
:1041A000056A066A076A086A096A0A6A0B6A0C6A7B
:1041B0000D6A0E6A0F6A106A116A126A136A146A2B
:1041C000156A166A0001CE69CF69C00E816E070EAE
:1041D000936E10EC10F02AEC10F00001096B000156
:1041E000010E086F826AF00E946EC26A1D0EC16ED7
:1041F0008292829082BEA8D12EEC10F000010C6B4E
:104200000001030E0D6F540EE66E4A0EE66EE66A6E
:10421000B1EC26F043E90001800EAA6F010EAB6FEE
:10422000D00EE66E070EE66EE66A020EE66EABC0D4
:10423000FAFFAA51140044E9030E0F1801E11050CF
:1042400001E16FD10F50101006E18280010E0F6E58
:10425000106A156A166A010E0F1801E1105001E08C
:10426000B8D0F4DEE66AE66ADC0EE66E420EE66E72
:10427000A6C0E6FFA7C0E6FFA8C0E6FFA9C0E6FF0C
:10428000F2EC18F0000901E17BD00001020E115C94
:10429000AA6F000E1258AB6FAAC0E6FFABC0E6FFD4
:1042A00060EC17F0A6C0E6FFA7C0E6FFA8C0E6FFD7
:1042B000A9C0E6FF62EC19F0000919E0020E000146
:1042C0001124AC6F000E1220AD6FACC0E6FFADC084
:1042D000E6FF60EC17F0A6C0E6FFA7C0E6FFA8C0A7
:1042E000E6FFA9C0E6FFF2EC18F0000913E1132A7B
:1042F000000E1422A6C0E6FFA7C0E6FFA8C0E6FF96
:10430000A9C0E6FFDCEC17F0E552E550126EE7506D
:10431000116E11D0136A146AA6C0E6FFA7C0E6FFAB
:10432000A8C0E6FFA9C0E6FFDCEC17F0E552E550B7
:10433000126EE750116E640E131801E1145020E163
:104340000001A651036EA751046EA851056EA95134
:10435000066E82900001800EAA6F010EAB6F1E0EDA
:10436000E66EE66AE66A020EE66EABC0FAFFAA5196
:10437000140044E98282020E0F6E106A136A146AF6
:10438000152A000E16220A0E151801E1165011E129
:104390002EEC10F000010C6B0001010E0D6F470EAA
:1043A000E66E4A0EE66EE66AB1EC26F043E9156A5F
:1043B000166A0001800EAA6F010EAB6F0A0EE66E40
:1043C000E66AE66A020EE66EABC0FAFFAA51140076
:1043D00044E9020E0F1801E1105001E0A1D036DED1
:1043E000E66AE66AAA0EE66E420EE66EA6C0E6FF32
:1043F000A7C0E6FFA8C0E6FFA9C0E6FF62EC19F07F
:10440000000966E000011104AA6F000E1258AB6F9C
:10441000AAC0E6FFABC0E6FF60EC17F0A6C0E6FF5F
:10442000A7C0E6FFA8C0E6FFA9C0E6FF62EC19F04E
:10443000000918E000011128AC6F000E1220AD6FCA
:10444000ACC0E6FFADC0E6FF60EC17F0A6C0E6FF2B
:10445000A7C0E6FFA8C0E6FFA9C0E6FFF2EC18F08F
:10446000000912E1136A146AA6C0E6FFA7C0E6FFBE
:10447000A8C0E6FFA9C0E6FFDCEC17F0E552E55066
:10448000126EE750116E12D0132A000E1422A6C02D
:10449000E6FFA7C0E6FFA8C0E6FFA9C0E6FFDCEC88
:1044A00017F0E552E550126EE750116E010E136ED3
:1044B000146A135014100CE00001A651076EA751A6
:1044C000086EA851096EA9510A6E030E0F6E106A8C
:1044D000152A000E16220A0E151801E1165011E1D8
:1044E0002EEC10F000010C6B0001010E0D6F470E59
:1044F000E66E4A0EE66EE66AB1EC26F043E9156A0E
:10450000166A0001800EAA6F010EAB6F020EE66EF6
:10451000E66AE66AE66EABC0FAFFAA51140044E907
:104520008BD60001800EAA6F010EAB6F880EE66E6F
:10453000130EE66EE66A020EE66EABC0FAFFAA51F3
:10454000140044E90F6A106A2EEC10F000010C6BA5
:104550000001010E0D6F01EBE6FF02EBE6FF320EEC
:10456000E66E4A0EE66EE66AB1EC26F045E91F0EED
:10457000E66E4A0EE66EE66AB1EC26F043E903EB1E
:10458000E6FF04EBE6FF05EBE6FF06EBE6FFDCECFF
:1045900017F00B0EE66E4A0EE66EE66AB1EC26F0F8
:1045A00045E9F70EE66E490EE66EE66AB1EC26F0D6
:1045B00043E907EBE6FF08EBE6FF09EBE6FF0AEB52
:1045C000E6FFDCEC17F0E30EE66E490EE66EE66AF7
:1045D000B1EC26F045E9D00EE66E490EE66EE66ACD
:1045E000B1EC26F043E90001800EAA6F010EAB6F1B
:1045F00001EBE6FF02EBE6FF300EE66E750EE66EAF
:1046000059EC18F0E552E5CFADF0E7CFACF0000182
:10461000AE6BADBFAE69ACC0E6FFADC0E6FFAEC0ED
:10462000E6FF020EE66EABC0FAFFAA51140044E9A1
:104630002EEC10F000010C6B0001010E0D6F01EB70
:10464000E6FF02EBE6FFBB0EE66E490EE66EE66A9B
:10465000B1EC26F045E9AA0EE66E490EE66EE66A72
:10466000B1EC26F043E903EBE6FF04EBE6FF05EBD4
:10467000E6FF06EBE6FFDCEC17F0960EE66E490E61
:10468000E66EE66AB1EC26F045E9830EE66E490E69
:10469000E66EE66AB1EC26F043E907EBE6FF08EBCD
:1046A000E6FF09EBE6FF0AEBE6FFDCEC17F06F0E26
:1046B000E66E490EE66EE66AB1EC26F045E95C0E60
:1046C000E66E490EE66EE66AB1EC26F043E90001BB
:1046D000800EAA6F010EAB6F01EBE6FF02EBE6FF67
:1046E000300EE66E750EE66E59EC18F0E552E5CF29
:1046F000ADF0E7CFACF00001AE6BADBFAE69ACC0C2
:10470000E6FFADC0E6FFAEC0E6FF020EE66EABC050
:10471000FAFFAA51140044E96BD557E9E7CFD9FF56
:02472000120085
:0E47220001020408102040800000000000008A
:10473000005F00000007000700147F147F14242A84
:104740007F2A12231308646236495522500005035C
:104750000000001C2241000041221C00082A1C2AE3
:104760000808083E0808005030000008080808083B
:10477000006060000020100804023E5149453E00E0
:10478000427F400042615149462141454B31181456
:10479000127F1027454545393C4A49493001710986
:1047A00005033649494936064949291E003636006F
:1047B000000056360000000814224114141414148A
:1047C00041221408000201510906324979413E7E16
:1047D0001111117E7F494949363E414141227F41B5
:1047E00041221C7F494949417F090901013E41415C
:1047F00051327F0808087F00417F41002040413F3F
:10480000017F081422417F404040407F0204027F24
:104810007F0408107F3E4141413E7F090909063E61
:104820004151215E7F091929464649494931010113
:104830007F01013F4040403F1F2040201F7F201844
:10484000207F63140814630304780403615149450D
:104850004300007F4141020408102041417F0000D5
:1048600004020102044040404040000102040020D4
:10487000545454787F48444438384444442038449D
:1048800044487F3854545418087E090102081454CF
:10489000543C7F0804047800447D40002040443D9F
:1048A00000007F10284400417F40007C04180478F9
:1048B0007C0804047838444444387C1414140808F0
:1048C0001414187C7C080404084854545420043FF1
:1048D0004440203C4040207C1C2040201C3C403078
:1048E000403C44281028440C5050503C4464544CE4
:1048F00044000836410000007F00000041360800F7
:10490000040202040208082A1C08081C2A08087C61
:104910000911217C7C0905057820545655783854B6
:1049200056551800447E410038444645383C4042C4
:10493000217C3C4140413C3C4140217C00007D00C9
:10494000003048454030D161F162E163E964ED65D2
:0C495000F366FA67DC68FC69A16ABF6BC3
:04495C0020202020D7
:10496000202020202020200909092020200A0020C2
:1049700020202020202020202020204449412025C4
:10498000640A00202020202020092009092020205E
:10499000202020200A00202020202020202020204D
:1049A00020205359532025640A0009202020092083
:1049B0000909202020202020200A0020202020205B
:1049C0002020200925642050554C2F6D696E0A0067
:1049D000202020202A202020202020090909202012
:1049E000200A002020202A2A2A20202009202044D2
:1049F00049412025640A0020202A2A2A2A2A09203F
:104A00000909202020202020200A00202A2A2A2AE2
:104A10002A2A2A200920205359532025640A002AD3
:104A20002A2A2A2A2A2A2A2A20092009092020207B
:104A30000A00202A2A2A202A2A2A092564205055D9
:104A40004C2F6D696E0A004D696469656E646F2E46
:104A50002E2E0A00496E696369616E646F206D6570
:0A4A6000646963696F6E2E2E2E004C
:064A6A0004D8000901E080
:104A7000FCD7120007D8FF0802E0FF0E02D0000E9C
:104A800000D01200F00E83140109836E0A0EE66E48
:104A9000E66A2FEC26F042E983A802D0000E5CD033
:104AA00083AA02D0010E58D083AC02D0020E54D09B
:104AB00083AE02D0030E50D0F00E83140209836E31
:104AC0000A0EE66EE66A2FEC26F042E983A802D0D1
:104AD000040E42D083AA02D0050E3ED083AC02D091
:104AE000060E3AD083AE02D0070E36D0F00E8314F5
:104AF0000409836E0A0EE66EE66A2FEC26F042E9A0
:104B000083A802D0080E28D083AA02D0090E24D090
:104B100083AC02D00A0E20D083AE02D00B0E1CD084
:104B2000F00E83140809836E0A0EE66EE66A2FEC17
:104B300026F042E983A802D00C0E0ED083AA02D040
:104B40000D0E0AD083AC02D00E0E06D083AE02D07A
:104B50000F0E02D0FF0E00D012008CDF000901E121
:084B6000FCD790DF00D0120029
:084B6800060EF66E200EF76E3A
:104B7000000EF86E00010900F550C56F0900F550F0
:104B8000C66F03E1C56701D03DD00900F550C06F85
:104B90000900F550C16F0900F550C26F0900090006
:104BA000F550E96E0900F550EA6E090009000900A8
:104BB000F550C36F0900F550C46F09000900F6CF26
:104BC000C7F0F7CFC8F0F8CFC9F0C0C0F6FFC1C03A
:104BD000F7FFC2C0F8FF0001C35302E1C45307E06E
:104BE0000900F550EE6EC307F8E2C407F9D7C7C055
:104BF000F6FFC8C0F7FFC9C0F8FF0001C507000EE7
:064C0000C65BBFD71200E5
:0A4C0600D9CFE6FFE1CFD9FF83E923
:104C100044E800EBAAF001EBABF00006000E015AED
:104C20000001AA51AB1117E0C10E036E020E046E13
:104C3000056A066A03500410051006100BE0D950EF
:104C4000030FE96EDACFEAFFEE06000EEE5AEE5AD7
:104C5000EE5AF0D7DED745E9E7CFD9FF1200D9CF1A
:104C6000E6FFE1CFD9FF83E941E800EBAAF001EBD1
:104C7000ABF00006000E015A0001AA51AB1107E08B
:104C80000A0E036E035002E00306FCD7EED742E99A
:064C9000E7CFD9FF12007E
:0A4C9600FE0EE3CFE9FFFF0EE3CFAF
:104CA000EAFFF36AF46AEE5203E0F34AF42AFBD710
:104CB0001200FF0EE3CFF8FFE552FF0EE3CFF7FF40
:104CC000E552FF0EE3CFF6FFE552E66AE66AE66AD2
:104CD0000900F55209E0FD0EE32A05E1FE0EE32A84
:104CE00002E1FF0EE32AF4D7FD0EE3CFCAF0FE0E79
:0C4CF000E3CFCBF0FF0EE3CFCCF01200BE
:044CFC00D9CFE6FF27
:104D0000DACFE6FFE1CFD9FFE2CFDAFF85E9013460
:104D100015E200EBE9FF01EBEAFFEECFF3FFEDCF89
:104D2000F4FFEE2A000EEF22F3CFE9FFF4CFEAFF03
:104D300002EBEFFFEF50F36EF46A0DD0FE0E005C55
:104D400005E102EBE6FF21EC27F004D002EBE6FFE1
:104D5000D1EC1FF041E941E9E5CFDAFFE7CFD9FF18
:024D600012003F
:0E4D6200D9CFE6FFDACFE6FFE1CFD9FFE2CFEF
:104D7000DAFF85E944E8D9CFE6FFDACFE6FFE5526E
:104D8000E550066EE750056E05EBE6FF06EBE6FF25
:104D900000EBE6FF01EBE6FF02EBE6FFCEC0E6FF2D
:104DA000CFC0E6FFDFEC1BF047E9F350076EF4508D
:104DB000086E07EBF3FF08EBF4FF45E9E5CFDAFFF8
:064DC000E7CFD9FF12004D
:0A4DC600E1CFBCF0E2CFBDF0D9CF81
:104DD000BEF0DACFBFF017EE00F027EE00F0F86A71
:104DE000B4EC25F038EC27F0C5EC20F0BCC0E1FFB6
:0E4DF000BDC0E2FFBEC0D9FFBFC0DAFF120097
:024DFE00F36A56
:104E0000F46AFF0EE124E96EFF0EE220EA6EED6621
:104E100007D02F0EEF6404D03A0EEF6001D0F32AD2
:024E200012007E
:0E4E2200000EF36E00EE00F0080E01D8120034
:104E3000EA6002D0EE6AFCD7F350E9601200EE6A35
:024E4000FCD79D
:0E4E4200FF0EE350ACBA04D0AF6AAB8EAC8A60
:0E4E5000949CACA2FED7AD6EF36EF46A120015
:024E5E003031F1
:0F4E600032333435363738396162636465660042
:024E700012002E
:024E7200FEFF41
:0C4E74000000A0404260E53C000000008F
:0C4E800000000000000000000000000026
:00000001FF
